{
  "contractName": "Wallet",
  "abi": [
    {
      "anonymous": false,
      "inputs": [
        {
          "indexed": false,
          "internalType": "address",
          "name": "token",
          "type": "address"
        },
        {
          "indexed": false,
          "internalType": "address",
          "name": "to",
          "type": "address"
        },
        {
          "indexed": false,
          "internalType": "uint256",
          "name": "id",
          "type": "uint256"
        },
        {
          "indexed": false,
          "internalType": "uint256",
          "name": "amount",
          "type": "uint256"
        }
      ],
      "name": "ERC1155Sent",
      "type": "event"
    },
    {
      "anonymous": false,
      "inputs": [
        {
          "indexed": false,
          "internalType": "address",
          "name": "token",
          "type": "address"
        },
        {
          "indexed": false,
          "internalType": "address",
          "name": "to",
          "type": "address"
        },
        {
          "indexed": false,
          "internalType": "uint256",
          "name": "amount",
          "type": "uint256"
        }
      ],
      "name": "ERC20Sent",
      "type": "event"
    },
    {
      "anonymous": false,
      "inputs": [
        {
          "indexed": false,
          "internalType": "address",
          "name": "sender",
          "type": "address"
        },
        {
          "indexed": false,
          "internalType": "uint256",
          "name": "amount",
          "type": "uint256"
        }
      ],
      "name": "EtherReceived",
      "type": "event"
    },
    {
      "anonymous": false,
      "inputs": [
        {
          "indexed": false,
          "internalType": "address",
          "name": "recipient",
          "type": "address"
        },
        {
          "indexed": false,
          "internalType": "uint256",
          "name": "amount",
          "type": "uint256"
        }
      ],
      "name": "EtherSent",
      "type": "event"
    },
    {
      "anonymous": false,
      "inputs": [
        {
          "indexed": true,
          "internalType": "address",
          "name": "previousOwner",
          "type": "address"
        },
        {
          "indexed": true,
          "internalType": "address",
          "name": "newOwner",
          "type": "address"
        }
      ],
      "name": "OwnershipTransferred",
      "type": "event"
    },
    {
      "inputs": [],
      "name": "owner",
      "outputs": [
        {
          "internalType": "address",
          "name": "",
          "type": "address"
        }
      ],
      "stateMutability": "view",
      "type": "function",
      "constant": true
    },
    {
      "inputs": [],
      "name": "renounceOwnership",
      "outputs": [],
      "stateMutability": "nonpayable",
      "type": "function"
    },
    {
      "inputs": [
        {
          "internalType": "address",
          "name": "newOwner",
          "type": "address"
        }
      ],
      "name": "transferOwnership",
      "outputs": [],
      "stateMutability": "nonpayable",
      "type": "function"
    },
    {
      "stateMutability": "payable",
      "type": "receive",
      "payable": true
    },
    {
      "inputs": [
        {
          "internalType": "address payable",
          "name": "to",
          "type": "address"
        },
        {
          "internalType": "uint256",
          "name": "amount",
          "type": "uint256"
        }
      ],
      "name": "Withdraw_Ether",
      "outputs": [],
      "stateMutability": "nonpayable",
      "type": "function"
    },
    {
      "inputs": [
        {
          "internalType": "contract IERC20",
          "name": "token",
          "type": "address"
        },
        {
          "internalType": "address",
          "name": "to",
          "type": "address"
        },
        {
          "internalType": "uint256",
          "name": "amount",
          "type": "uint256"
        }
      ],
      "name": "Transfer_ERC20",
      "outputs": [],
      "stateMutability": "nonpayable",
      "type": "function"
    },
    {
      "inputs": [
        {
          "internalType": "contract IERC1155",
          "name": "token",
          "type": "address"
        },
        {
          "internalType": "address",
          "name": "to",
          "type": "address"
        },
        {
          "internalType": "uint256",
          "name": "id",
          "type": "uint256"
        },
        {
          "internalType": "uint256",
          "name": "amount",
          "type": "uint256"
        }
      ],
      "name": "Transfer_ERC1155",
      "outputs": [],
      "stateMutability": "nonpayable",
      "type": "function"
    },
    {
      "inputs": [],
      "name": "Check_Balance",
      "outputs": [
        {
          "internalType": "uint256",
          "name": "",
          "type": "uint256"
        }
      ],
      "stateMutability": "view",
      "type": "function",
      "constant": true
    },
    {
      "inputs": [
        {
          "internalType": "address",
          "name": "",
          "type": "address"
        },
        {
          "internalType": "address",
          "name": "",
          "type": "address"
        },
        {
          "internalType": "uint256",
          "name": "",
          "type": "uint256"
        },
        {
          "internalType": "uint256",
          "name": "",
          "type": "uint256"
        },
        {
          "internalType": "bytes",
          "name": "",
          "type": "bytes"
        }
      ],
      "name": "onERC1155Received",
      "outputs": [
        {
          "internalType": "bytes4",
          "name": "",
          "type": "bytes4"
        }
      ],
      "stateMutability": "nonpayable",
      "type": "function"
    },
    {
      "inputs": [
        {
          "internalType": "address",
          "name": "",
          "type": "address"
        },
        {
          "internalType": "address",
          "name": "",
          "type": "address"
        },
        {
          "internalType": "uint256[]",
          "name": "",
          "type": "uint256[]"
        },
        {
          "internalType": "uint256[]",
          "name": "",
          "type": "uint256[]"
        },
        {
          "internalType": "bytes",
          "name": "",
          "type": "bytes"
        }
      ],
      "name": "onERC1155BatchReceived",
      "outputs": [
        {
          "internalType": "bytes4",
          "name": "",
          "type": "bytes4"
        }
      ],
      "stateMutability": "nonpayable",
      "type": "function"
    },
    {
      "inputs": [
        {
          "internalType": "bytes4",
          "name": "interfaceId",
          "type": "bytes4"
        }
      ],
      "name": "supportsInterface",
      "outputs": [
        {
          "internalType": "bool",
          "name": "",
          "type": "bool"
        }
      ],
      "stateMutability": "view",
      "type": "function",
      "constant": true
    }
  ],
  "bytecode": "0x608060405234801561001057600080fd5b50600160008190555061003561002a61003a60201b60201c565b61004260201b60201c565b610108565b600033905090565b6000600160009054906101000a900473ffffffffffffffffffffffffffffffffffffffff16905081600160006101000a81548173ffffffffffffffffffffffffffffffffffffffff021916908373ffffffffffffffffffffffffffffffffffffffff1602179055508173ffffffffffffffffffffffffffffffffffffffff168173ffffffffffffffffffffffffffffffffffffffff167f8be0079c531659141344cd1fd0a4f28419497f9722a3daafe3b4186f6b6457e060405160405180910390a35050565b611809806101176000396000f3fe6080604052600436106100955760003560e01c8063d84221ba11610059578063d84221ba146101bf578063e8594ada146101ea578063f23a6e6114610213578063f2fde38b14610250578063fb7c5b6a14610279576100d5565b806301ffc9a7146100da57806311df7f4d14610117578063715018a6146101405780638da5cb5b14610157578063bc197c8114610182576100d5565b366100d5577f1e57e3bb474320be3d2c77138f75b7c3941292d647f5f9634e33a8e94e0e069b33346040516100cb929190610b32565b60405180910390a1005b600080fd5b3480156100e657600080fd5b5061010160048036038101906100fc9190610bc7565b6102a2565b60405161010e9190610c0f565b60405180910390f35b34801561012357600080fd5b5061013e60048036038101906101399190610c94565b610384565b005b34801561014c57600080fd5b506101556104b9565b005b34801561016357600080fd5b5061016c6104cd565b6040516101799190610cd4565b60405180910390f35b34801561018e57600080fd5b506101a960048036038101906101a49190610f29565b6104f7565b6040516101b69190611007565b60405180910390f35b3480156101cb57600080fd5b506101d461050c565b6040516101e19190611022565b60405180910390f35b3480156101f657600080fd5b50610211600480360381019061020c919061107b565b610514565b005b34801561021f57600080fd5b5061023a600480360381019061023591906110ce565b6106eb565b6040516102479190611007565b60405180910390f35b34801561025c57600080fd5b5061027760048036038101906102729190611165565b610700565b005b34801561028557600080fd5b506102a0600480360381019061029b91906111d0565b610783565b005b60007fd9b67a26000000000000000000000000000000000000000000000000000000007bffffffffffffffffffffffffffffffffffffffffffffffffffffffff1916827bffffffffffffffffffffffffffffffffffffffffffffffffffffffff1916148061036d57507f4e2312e0000000000000000000000000000000000000000000000000000000007bffffffffffffffffffffffffffffffffffffffffffffffffffffffff1916827bffffffffffffffffffffffffffffffffffffffffffffffffffffffff1916145b8061037d575061037c8261084f565b5b9050919050565b61038c6108c9565b804710156103cf576040517f08c379a00000000000000000000000000000000000000000000000000000000081526004016103c690611294565b60405180910390fd5b60008273ffffffffffffffffffffffffffffffffffffffff16826040516103f5906112e5565b60006040518083038185875af1925050503d8060008114610432576040519150601f19603f3d011682016040523d82523d6000602084013e610437565b606091505b505090508061047b576040517f08c379a000000000000000000000000000000000000000000000000000000000815260040161047290611346565b60405180910390fd5b7f6109e2559dfa766aaec7118351d48a523f0a4157f49c8d68749c8ac41318ad1283836040516104ac9291906113c5565b60405180910390a1505050565b6104c16108c9565b6104cb6000610947565b565b6000600160009054906101000a900473ffffffffffffffffffffffffffffffffffffffff16905090565b600063bc197c8160e01b905095945050505050565b600047905090565b61051c6108c9565b610524610a0d565b808373ffffffffffffffffffffffffffffffffffffffff166370a08231306040518263ffffffff1660e01b815260040161055e9190610cd4565b602060405180830381865afa15801561057b573d6000803e3d6000fd5b505050506040513d601f19601f8201168201806040525081019061059f9190611403565b10156105e0576040517f08c379a00000000000000000000000000000000000000000000000000000000081526004016105d79061147c565b60405180910390fd5b60008373ffffffffffffffffffffffffffffffffffffffff1663a9059cbb84846040518363ffffffff1660e01b815260040161061d929190610b32565b6020604051808303816000875af115801561063c573d6000803e3d6000fd5b505050506040513d601f19601f8201168201806040525081019061066091906114c8565b9050806106a2576040517f08c379a000000000000000000000000000000000000000000000000000000000815260040161069990611541565b60405180910390fd5b7f66da13e293e415f961254bcbfc4a8ae83526d9f81561f059493541e4c5558b0b8484846040516106d593929190611561565b60405180910390a1506106e6610a5c565b505050565b600063f23a6e6160e01b905095945050505050565b6107086108c9565b600073ffffffffffffffffffffffffffffffffffffffff168173ffffffffffffffffffffffffffffffffffffffff1603610777576040517f08c379a000000000000000000000000000000000000000000000000000000000815260040161076e9061160a565b60405180910390fd5b61078081610947565b50565b61078b6108c9565b610793610a0d565b8373ffffffffffffffffffffffffffffffffffffffff1663f242432a308585856040518563ffffffff1660e01b81526004016107d2949392919061165e565b600060405180830381600087803b1580156107ec57600080fd5b505af1158015610800573d6000803e3d6000fd5b505050507f352e3378b22c6b7af850458dc72f794b7e9151615191a37cb173b4438a068a168484848460405161083994939291906116b6565b60405180910390a1610849610a5c565b50505050565b60007f4e2312e0000000000000000000000000000000000000000000000000000000007bffffffffffffffffffffffffffffffffffffffffffffffffffffffff1916827bffffffffffffffffffffffffffffffffffffffffffffffffffffffff191614806108c257506108c182610a66565b5b9050919050565b6108d1610ad0565b73ffffffffffffffffffffffffffffffffffffffff166108ef6104cd565b73ffffffffffffffffffffffffffffffffffffffff1614610945576040517f08c379a000000000000000000000000000000000000000000000000000000000815260040161093c90611747565b60405180910390fd5b565b6000600160009054906101000a900473ffffffffffffffffffffffffffffffffffffffff16905081600160006101000a81548173ffffffffffffffffffffffffffffffffffffffff021916908373ffffffffffffffffffffffffffffffffffffffff1602179055508173ffffffffffffffffffffffffffffffffffffffff168173ffffffffffffffffffffffffffffffffffffffff167f8be0079c531659141344cd1fd0a4f28419497f9722a3daafe3b4186f6b6457e060405160405180910390a35050565b600260005403610a52576040517f08c379a0000000000000000000000000000000000000000000000000000000008152600401610a49906117b3565b60405180910390fd5b6002600081905550565b6001600081905550565b60007f01ffc9a7000000000000000000000000000000000000000000000000000000007bffffffffffffffffffffffffffffffffffffffffffffffffffffffff1916827bffffffffffffffffffffffffffffffffffffffffffffffffffffffff1916149050919050565b600033905090565b600073ffffffffffffffffffffffffffffffffffffffff82169050919050565b6000610b0382610ad8565b9050919050565b610b1381610af8565b82525050565b6000819050919050565b610b2c81610b19565b82525050565b6000604082019050610b476000830185610b0a565b610b546020830184610b23565b9392505050565b6000604051905090565b600080fd5b600080fd5b60007fffffffff0000000000000000000000000000000000000000000000000000000082169050919050565b610ba481610b6f565b8114610baf57600080fd5b50565b600081359050610bc181610b9b565b92915050565b600060208284031215610bdd57610bdc610b65565b5b6000610beb84828501610bb2565b91505092915050565b60008115159050919050565b610c0981610bf4565b82525050565b6000602082019050610c246000830184610c00565b92915050565b6000610c3582610ad8565b9050919050565b610c4581610c2a565b8114610c5057600080fd5b50565b600081359050610c6281610c3c565b92915050565b610c7181610b19565b8114610c7c57600080fd5b50565b600081359050610c8e81610c68565b92915050565b60008060408385031215610cab57610caa610b65565b5b6000610cb985828601610c53565b9250506020610cca85828601610c7f565b9150509250929050565b6000602082019050610ce96000830184610b0a565b92915050565b610cf881610af8565b8114610d0357600080fd5b50565b600081359050610d1581610cef565b92915050565b600080fd5b6000601f19601f8301169050919050565b7f4e487b7100000000000000000000000000000000000000000000000000000000600052604160045260246000fd5b610d6982610d20565b810181811067ffffffffffffffff82111715610d8857610d87610d31565b5b80604052505050565b6000610d9b610b5b565b9050610da78282610d60565b919050565b600067ffffffffffffffff821115610dc757610dc6610d31565b5b602082029050602081019050919050565b600080fd5b6000610df0610deb84610dac565b610d91565b90508083825260208201905060208402830185811115610e1357610e12610dd8565b5b835b81811015610e3c5780610e288882610c7f565b845260208401935050602081019050610e15565b5050509392505050565b600082601f830112610e5b57610e5a610d1b565b5b8135610e6b848260208601610ddd565b91505092915050565b600080fd5b600067ffffffffffffffff821115610e9457610e93610d31565b5b610e9d82610d20565b9050602081019050919050565b82818337600083830152505050565b6000610ecc610ec784610e79565b610d91565b905082815260208101848484011115610ee857610ee7610e74565b5b610ef3848285610eaa565b509392505050565b600082601f830112610f1057610f0f610d1b565b5b8135610f20848260208601610eb9565b91505092915050565b600080600080600060a08688031215610f4557610f44610b65565b5b6000610f5388828901610d06565b9550506020610f6488828901610d06565b945050604086013567ffffffffffffffff811115610f8557610f84610b6a565b5b610f9188828901610e46565b935050606086013567ffffffffffffffff811115610fb257610fb1610b6a565b5b610fbe88828901610e46565b925050608086013567ffffffffffffffff811115610fdf57610fde610b6a565b5b610feb88828901610efb565b9150509295509295909350565b61100181610b6f565b82525050565b600060208201905061101c6000830184610ff8565b92915050565b60006020820190506110376000830184610b23565b92915050565b600061104882610af8565b9050919050565b6110588161103d565b811461106357600080fd5b50565b6000813590506110758161104f565b92915050565b60008060006060848603121561109457611093610b65565b5b60006110a286828701611066565b93505060206110b386828701610d06565b92505060406110c486828701610c7f565b9150509250925092565b600080600080600060a086880312156110ea576110e9610b65565b5b60006110f888828901610d06565b955050602061110988828901610d06565b945050604061111a88828901610c7f565b935050606061112b88828901610c7f565b925050608086013567ffffffffffffffff81111561114c5761114b610b6a565b5b61115888828901610efb565b9150509295509295909350565b60006020828403121561117b5761117a610b65565b5b600061118984828501610d06565b91505092915050565b600061119d82610af8565b9050919050565b6111ad81611192565b81146111b857600080fd5b50565b6000813590506111ca816111a4565b92915050565b600080600080608085870312156111ea576111e9610b65565b5b60006111f8878288016111bb565b945050602061120987828801610d06565b935050604061121a87828801610c7f565b925050606061122b87828801610c7f565b91505092959194509250565b600082825260208201905092915050565b7f496e73756666696369656e742062616c616e6365000000000000000000000000600082015250565b600061127e601483611237565b915061128982611248565b602082019050919050565b600060208201905081810360008301526112ad81611271565b9050919050565b600081905092915050565b50565b60006112cf6000836112b4565b91506112da826112bf565b600082019050919050565b60006112f0826112c2565b9150819050919050565b7f5472616e73666572206661696c65640000000000000000000000000000000000600082015250565b6000611330600f83611237565b915061133b826112fa565b602082019050919050565b6000602082019050818103600083015261135f81611323565b9050919050565b6000819050919050565b600061138b61138661138184610ad8565b611366565b610ad8565b9050919050565b600061139d82611370565b9050919050565b60006113af82611392565b9050919050565b6113bf816113a4565b82525050565b60006040820190506113da60008301856113b6565b6113e76020830184610b23565b9392505050565b6000815190506113fd81610c68565b92915050565b60006020828403121561141957611418610b65565b5b6000611427848285016113ee565b91505092915050565b7f496e73756666696369656e7420746f6b656e2062616c616e6365000000000000600082015250565b6000611466601a83611237565b915061147182611430565b602082019050919050565b6000602082019050818103600083015261149581611459565b9050919050565b6114a581610bf4565b81146114b057600080fd5b50565b6000815190506114c28161149c565b92915050565b6000602082840312156114de576114dd610b65565b5b60006114ec848285016114b3565b91505092915050565b7f546f6b656e207472616e73666572206661696c65640000000000000000000000600082015250565b600061152b601583611237565b9150611536826114f5565b602082019050919050565b6000602082019050818103600083015261155a8161151e565b9050919050565b60006060820190506115766000830186610b0a565b6115836020830185610b0a565b6115906040830184610b23565b949350505050565b7f4f776e61626c653a206e6577206f776e657220697320746865207a65726f206160008201527f6464726573730000000000000000000000000000000000000000000000000000602082015250565b60006115f4602683611237565b91506115ff82611598565b604082019050919050565b60006020820190508181036000830152611623816115e7565b9050919050565b600082825260208201905092915050565b600061164860008361162a565b9150611653826112bf565b600082019050919050565b600060a0820190506116736000830187610b0a565b6116806020830186610b0a565b61168d6040830185610b23565b61169a6060830184610b23565b81810360808301526116ab8161163b565b905095945050505050565b60006080820190506116cb6000830187610b0a565b6116d86020830186610b0a565b6116e56040830185610b23565b6116f26060830184610b23565b95945050505050565b7f4f776e61626c653a2063616c6c6572206973206e6f7420746865206f776e6572600082015250565b6000611731602083611237565b915061173c826116fb565b602082019050919050565b6000602082019050818103600083015261176081611724565b9050919050565b7f5265656e7472616e637947756172643a207265656e7472616e742063616c6c00600082015250565b600061179d601f83611237565b91506117a882611767565b602082019050919050565b600060208201905081810360008301526117cc81611790565b905091905056fea264697066735822122004dc58c404815eb56664e04da86bc32d0ade831bebf4a832713be86f8c9853fd64736f6c63430008130033",
  "immutableReferences": {},
  "source": "// SPDX-License-Identifier: MIT\r\npragma solidity ^0.8.19;\r\n\r\nimport \"@openzeppelin/contracts/token/ERC20/IERC20.sol\";\r\nimport \"@openzeppelin/contracts/security/ReentrancyGuard.sol\";\r\nimport \"@openzeppelin/contracts/token/ERC1155/IERC1155.sol\";\r\nimport \"@openzeppelin/contracts/token/ERC1155/utils/ERC1155Receiver.sol\"; // Import ERC1155Receiver\r\nimport \"@openzeppelin/contracts/access/Ownable.sol\";\r\n\r\ncontract Wallet is ERC1155Receiver, ReentrancyGuard, Ownable { // Make sure to inherit from ERC1155Receiver\r\n    event EtherReceived(address sender, uint amount);\r\n    event EtherSent(address recipient, uint amount);\r\n    event ERC20Sent(address token, address to, uint256 amount);\r\n    event ERC1155Sent(address token, address to, uint256 id, uint256 amount);\r\n\r\n    // Receive Ether\r\n    receive() external payable {\r\n        emit EtherReceived(msg.sender, msg.value);\r\n    }\r\n\r\n    // Withdraw Ether\r\n    function Withdraw_Ether(address payable to, uint256 amount) external onlyOwner {\r\n        require(address(this).balance >= amount, \"Insufficient balance\");\r\n        (bool success,) = to.call{value: amount}(\"\");\r\n        require(success, \"Transfer failed\");\r\n        emit EtherSent(to, amount);\r\n    }\r\n\r\n    // Transfer ERC-20 Tokens\r\n    function Transfer_ERC20(IERC20 token, address to, uint256 amount) external onlyOwner nonReentrant {\r\n        require(token.balanceOf(address(this)) >= amount, \"Insufficient token balance\");\r\n        bool success = token.transfer(to, amount);\r\n        require(success, \"Token transfer failed\");\r\n        emit ERC20Sent(address(token), to, amount);\r\n    }\r\n\r\n    // Transfer ERC-1155 Tokens\r\n    function Transfer_ERC1155(IERC1155 token, address to, uint256 id, uint256 amount) external onlyOwner nonReentrant {\r\n        token.safeTransferFrom(address(this), to, id, amount, \"\");\r\n        emit ERC1155Sent(address(token), to, id, amount);\r\n    }\r\n\r\n    // Check Ether Balance\r\n    function Check_Balance() external view returns (uint) {\r\n        return address(this).balance;\r\n    }\r\n\r\n    // Implement onERC1155Received and onERC1155BatchReceived functions to correctly handle ERC1155 tokens\r\n    function onERC1155Received(address, address, uint256, uint256, bytes memory) public virtual override returns (bytes4) {\r\n        return this.onERC1155Received.selector;\r\n    }\r\n\r\n    function onERC1155BatchReceived(address, address, uint256[] memory, uint256[] memory, bytes memory) public virtual override returns (bytes4) {\r\n        return this.onERC1155BatchReceived.selector;\r\n    }\r\n\r\n    // Override supportsInterface to correctly indicate support for ERC1155 token reception\r\nfunction supportsInterface(bytes4 interfaceId) public view virtual override returns (bool) {\r\n    return interfaceId == type(IERC1155).interfaceId \r\n        || interfaceId == type(IERC1155Receiver).interfaceId\r\n        || super.supportsInterface(interfaceId);\r\n}\r\n\r\n}\r\n\r\n\r\n",
  "sourcePath": "C:\\Users\\tonym\\wallet\\contracts\\wallet.sol",
  "compiler": {
    "name": "solc",
    "version": "0.8.19+commit.7dd6d404.Emscripten.clang"
  },
  "schemaVersion": "3.4.16",
  "updatedAt": "2024-03-15T01:40:52.032Z",
  "networkType": "ethereum",
  "devdoc": {
    "kind": "dev",
    "methods": {
      "owner()": {
        "details": "Returns the address of the current owner."
      },
      "renounceOwnership()": {
        "details": "Leaves the contract without owner. It will not be possible to call `onlyOwner` functions. Can only be called by the current owner. NOTE: Renouncing ownership will leave the contract without an owner, thereby disabling any functionality that is only available to the owner."
      },
      "supportsInterface(bytes4)": {
        "details": "See {IERC165-supportsInterface}."
      },
      "transferOwnership(address)": {
        "details": "Transfers ownership of the contract to a new account (`newOwner`). Can only be called by the current owner."
      }
    },
    "version": 1
  },
  "userdoc": {
    "kind": "user",
    "methods": {},
    "version": 1
  }
}